:020000040800F2
:10000000B8320020D5020008D732000819320008A3
:10001000D5320008E31D0008215000080000000050
:10002000000000000000000000000000553400083F
:100030004F1F00080000000053340008613400081E
:10004000EF020008EF020008EF020008EF020008CC
:10005000EF020008EF020008EF020008EF020008BC
:10006000EF020008EF020008EF020008EF020008AC
:10007000EF020008EF020008EF020008EF0200089C
:10008000EF020008EF020008EF020008EF0200088C
:10009000EF020008EF020008EF020008EF0200087C
:1000A000EF020008EF020008EF020008EF0200086C
:1000B000EF020008EF020008EF020008EF0200085C
:1000C000EF020008EF020008EF020008EF0200084C
:1000D000EF020008EF020008EF020008EF0200083C
:1000E000EF020008EF020008EF020008EF0200082C
:1000F000EF020008EF020008EF020008EF0200081C
:10010000EF020008EF020008EF020008EF0200080B
:10011000EF020008EF020008EF020008EF020008FB
:10012000EF020008EF020008EF020008EF020008EB
:10013000EF020008EF020008EF020008EF020008DB
:10014000EF020008EF020008EF020008D9320008B1
:10015000EF020008EF020008EF020008EF020008BB
:10016000EF020008EF020008EF020008EF020008AB
:10017000EF020008EF020008EF0200080000000094
:10018000EF020008EF02000800F002F800F092F819
:100190000AA090E8000C82448344AAF10107DA45E2
:1001A00001D100F087F8AFF2090EBAE80F0013F0A2
:1001B000010F18BFFB1A43F00103184794540000C5
:1001C000B4540000103A24BF78C878C1FAD8520756
:1001D00024BF30C830C144BF04680C6070470000C1
:1001E0000023002400250026103A28BF78C1FBD840
:1001F000520728BF30C148BF0B6070476E2900F01E
:100200002982702900F07383662905F0178065291B
:1002100005F01480672905F01180612905F0108030
:1002200003681B0A28BF41F08001692900F0D681CC
:10023000642900F0D381752900F0D0816F2900F086
:100240000083782900F03F83E92900F09B82E429AC
:1002500000F09882F52900F09582EF2900F0FD82E8
:10026000F82900F03E830368DB0928BF41F08001D4
:10027000632901F07380732901F07880E32901F08C
:100280008380F32901F08880002070471FB504F0B7
:10029000D0FF01F0D3F804000020002104F03CFF5F
:1002A000401C60600020002104F020FFE0601FBDC2
:1002B00010B510BD01F094F81146FFF7E7FF04F008
:1002C000EFFE01F071F903B4FFF7F2FF03BC01F098
:1002D000B9F900000948804709480047FEE7FEE7F2
:1002E000FEE7FEE7FEE7FEE7FEE7FEE7FEE7FEE7E6
:1002F00004480549054A064B70470000F9340008D8
:1003000089010008B81E0020B8320020B82E002055
:10031000B82E002053EA020C00F069802DE9F04B62
:100320004FF00006002B1FBFB3FA83F503FA05F464
:1003300024FA05F65E4012BF1643B2FA82F502FABD
:1003400005F4C5F120051EBF22FA05FC44EA0C04A1
:10035000203556EA044C4FEA144418BF641C4FF091
:1003600000084FF00009904271EB030C39D30029CB
:1003700019BFB1FA81F701FA07F6B0FA80F700FA6F
:1003800007F6C7F120071EBF20FA07FC46EA0C0655
:100390002037B6FBF4FCA7EB0507103F07F01F0B57
:1003A000CBF120060CFA0BFB2CFA06F644BFB34641
:1003B0000026202FA4BF5E464FF0000B5BEA060C20
:1003C00008BF4FF0010B19EB0B09ABFB027C48EBAC
:1003D0000608C01B06FB02CC0BFB03CC71EB0C0127
:1003E000C1E70B46024641464846BDE8F08B13B5CF
:1003F0004FF000004FF00001AFF30080BDE81C405B
:10040000704700007CB51D4616460C00009001D0D8
:100410002044401E074B7B442A46694601903046E3
:1004200000F031F905461CB10020694600F03EF9A4
:1004300028467CBD9D020000032A40F2308010F067
:10044000030C00F0158011F8013BBCF1020F62446F
:1004500098BF11F801CB00F8013B38BF11F8013B00
:10046000A2F1040298BF00F801CB38BF00F8013BAD
:1004700011F0030300F00A83083AC0F0088051F835
:10048000043B083A51F804CBA0E80810F5E7121D28
:100490005CBF51F8043B40F8043BAFF30080D20747
:1004A00024BF11F8013B11F801CB48BF11F8012B13
:1004B00024BF00F8013B00F801CB48BF00F8012B36
:1004C00070474FF0000200B5134694469646203917
:1004D00022BFA0E80C50A0E80C50B1F12001BFF4FD
:1004E000F7AF090728BFA0E80C5048BF0CC05DF863
:1004F00004EB890028BF40F8042B08BF704748BFB1
:1005000020F8022B11F0804F18BF00F8012B704724
:1005100070477047704770B5044685690068C1062A
:1005200001D5302600E02026C00707D070BDD4E9F1
:10053000012130469047206A401C20626D1EF6D58E
:1005400070BD70B5044685690078C00707D170BDDD
:10055000D4E9012120209047206A401C20626D1EB2
:10056000F6D570BD09684A0501D540B27047C90586
:10057000FCD500B2704709684A0501D5C0B2704782
:10058000C905FCD580B2704770B50C460546012AF6
:1005900005D02878800600D5EA69002302E001230F
:1005A00005E05B1C934202D2E05C0028F9D1A86907
:1005B000E618C01AA861286A184428622846FFF77E
:1005C000AAFF04E0D5E9012114F8010B9047B442D9
:1005D000F8D32846FFF7B5FF70BD00002DE9F041C4
:1005E0000646002410687529314616A510D0FFF77D
:1005F000B9FF002802DA404213A507E031688A07F4
:1006000001D512A502E0490704D511A5012401E096
:10061000FFF7B1FF00210A2206F1240709E0B0FB31
:10062000F2FCB0FBF2F302FB1C00303078541846A9
:10063000491C0028F3D123462A463046BDE8F04144
:1006400000F09BBA000000002D0000002B0000000D
:100650002000000011680268006A530501D5087087
:100660000AE0D30501D5088006E0130603D5C217BA
:10067000C1E9000200E008600120704701694A1CDE
:1006800002610878704700B58FB0CDE901310021D3
:10069000059105497944CDE903101146684600F0FB
:1006A00031F90FB000BD0000E5FFFFFF0A6802F856
:1006B000010B0A607047D1E900239A4202D2531C11
:1006C0000B601070704700002DE9FF5F15468A46E9
:1006D0000446DFF8AC80F8440027D8E900103E4615
:1006E000CDE9001010E03AF816106A4602A800F0B2
:1006F00057FE411C07D02178890603D5E2693918D5
:1007000091420DD80744761C2078800602D5E06916
:10071000B84205DDAE42E6DB3AF816000028E2D129
:10072000A069C01BA0612046FFF7F5FED8E90010C4
:10073000CDE90010002017E03AF818106A4602A828
:1007400000F02EFEB0F1FF3F81460BD000250DF1E9
:10075000080B05E0D4E901211BF8050090476D1C4A
:100760004D45F7D308F10100B0428046E4DB206A32
:10077000384420622046FFF7E4FEBDE8FF9F0000FA
:100780007A4E00002DE9F0418046D21D22F007028A
:100790000025D2E90002F52915A614D0011E72F138
:1007A000000106DA0023D0EB030063EB020211A67E
:1007B00008E0D8F800108B0701D50FA602E0490722
:1007C00001D50EA601251146002408F1240704E0F6
:1007D00000F08EF930323A55641C50EA0102F7D12C
:1007E0002B46324621464046BDE8F04100F0C5B9EF
:1007F000000000002D0000002B0000002000000081
:1008000030B4002100F1240408E002F00705D2080A
:10081000303542EA4372DB086554491C52EA03054D
:10082000F3D10468002310A2250707D5A40600D43D
:1008300021B1C46901230DA2641EC46130BC00F063
:100840009CB910B5044621461068FFF794FE024695
:100850002046BDE810400023D2E7D21D22F0070158
:10086000D1E90023CCE700000000000030000000C8
:10087000F0B40D460188090502D5214C7C4402E004
:100880001F4C7C440E34002100F1240608E002F0E5
:100890000F071209E75D42EA03721B097754491CEE
:1008A00052EA0307F3D102780023120704D5702D12
:1008B00006D009B1022311342246F0BC00F05DB924
:1008C00001231034F8E770B504460D462146106840
:1008D000FFF751FE024629462046BDE8704000233E
:1008E000C6E7D21D22F00703D3E90023C0E703685F
:1008F000126843F0200303600823C3610023B7E7B5
:10090000DC4C00002DE9F05F894604464FF0000AF8
:10091000DFF874B1FB44C0F820A02046E1688847A6
:10092000002874D0252806D0D4E901219047206AF8
:10093000401C2062F1E700265F462046E1688847B8
:100940002028054607DB312D05D2781910F8200C38
:1009500008B10643F1E7B00701D526F00406C4F854
:100960001CA00027C4F818A02A2D09D0284604F09E
:1009700080FB38B304EB8708303DC8F8185019E005
:1009800059F8041B204604EB87029161E16888470F
:10099000012F054618D1E069002820DA26F020064C
:1009A0001DE0D8F8180000EB800005EB400030385F
:1009B000C8F818002046E1688847054604F059FB4E
:1009C0000028EED1012F0AD02E2D08D12046E16853
:1009D00088477F1C0546022F46F02006C4DBA0692D
:1009E000002803DA404246F00106A061F00701D07A
:1009F00026F010066C2D0BD0682D09D04C2D39D067
:100A00006A2D35D0742D35D07A2D33D016E038E0EC
:100A1000E1682F4620468847B842054609D16C2F29
:100A200026D04FF48060E16806432046884705469B
:100A300004E06C2F1AD04FF4807006430DB3A5F17B
:100A40004100192802D8203546F400664A46294656
:100A5000204626604E46FFF7D1FB80B101280BD01F
:100A6000F61D26F0070000F1080956E74020E4E7EC
:100A70008020D8E70020D6E706F104094DE7284694
:100A800052E7206ABDE8F09F6C4C000010B5203A98
:100A9000C0F00B80B1E81850203AA0E81850B1E837
:100AA0001850A0E81850BFF4F5AF5FEA027C24BFED
:100AB000B1E81850A0E8185044BF18C918C0BDE8E4
:100AC00010405FEA827C24BF51F8043B40F8043BAD
:100AD00008BF7047D20728BF31F8023B48BF11F862
:100AE000012B28BF20F8023B48BF00F8012B7047BC
:100AF00030B5B0F10A024FEA900E71F100034EEAF0
:100B0000817EB0EB0E0061EB91014FEA101E4EEAC0
:100B1000017E10EB0E0041EB11114FEA102E4EEA50
:100B2000016E10EB0E0041EB11214FEA104E4EEA20
:100B3000014E10EB0E0041EB1141401841F1000154
:100B40004FEAD00040EA41704FEAD10110EB800536
:100B50004FEA810444EA907444EB01046D1944EBBC
:100B60000404521BA3414FF0000348BF0A3200D5D2
:100B700030BD401C41F1000130BD2DE9F0470D466C
:100B800099469246044600F124080168880604D577
:100B9000E06921F01001216000E00120A84201DDA0
:100BA000471B00E00027A1697A1902EB0900081A27
:100BB000A0612078C00602D42046FFF7ACFC0026D6
:100BC00008E0D4E901211AF806009047206A401C89
:100BD000761C20624E45F4DB2078C0060AD52046FC
:100BE000FFF799FC06E0D4E9012130209047206A04
:100BF000401C2062381EA7F10107F4DC07E0D4E9AD
:100C0000012118F805009047206A401C2062281E28
:100C1000A5F10105F3DC2046FFF793FC20780006E0
:100C200002D50220BDE8F0870120FBE770472DE9DF
:100C3000FF4F0C461E464FF0FF378BB0D2E9000144
:100C4000DDF860800A908A46C1F30A5505B93D4631
:100C5000002108464FF00000BAF1000F00F44000F8
:100C600005DA00EB80004FF4400101EA50004FEA42
:100C70009059B9F1010F00DDB9460A9850EA4A00CF
:100C80000ED044F61050A5F2FF3545432F14B8F1AD
:100C9000000F1ED07542291E1EDDC9F100021CE0A6
:100CA000B8F1010F4FF0000001D0302103E0F24312
:100CB00005E02154401CB042FBDB304600220021FD
:100CC00021540B99C1F80880C1E900200FB0BDE89C
:100CD000F08FBD1B6D1CDEE74A4600DA694206A8AC
:100CE00000F0F0FB06AB93E8070003AB83E80700D6
:100CF00050460A9900F0ADFC8DE80700A0F50050C1
:100D00001F3800900398002D0ADD42F21F014A4669
:100D10000844002303A90390684600F016FF09E089
:100D2000A0F500504A461F38002303A903906846E7
:100D300000F020FF8DE807000004000C03D04FF006
:100D4000FF30410800E01046B8F1000F03D0002248
:100D5000009215461EE0751E05D4FFF7C9FE30321D
:100D600062556D1EF9D5B3460122084302D0002218
:100D70007F1C04E02078302801D100227F1E002A49
:100D8000099784D01DE0112D07DAFFF7B1FE30324C
:100D900062556D1C50EA0102F5D1084302D000985B
:100DA000C8B10EE00021681E05E0235C625C63545C
:100DB0002254401E491C8142F7DBAB46A81B401E53
:100DC0000990002004F80B000B98099AC0F80880DD
:100DD000C0E9002B7AE711264FF0000857E72DE90C
:100DE000F04F88460446D21D22F0070191B0D1E9A8
:100DF0000001CDE90A0104F014F902460B98C00F76
:100E000001D02D2007E02068810701D52B2002E0CA
:100E1000202101EAC000032A099001D0072A05DB3E
:100E200003464146204600F00DFB0BE1207880068A
:100E300001D5E06900E00620B8F1650F814606D0D3
:100E4000B8F1660F18D0B8F1670F70D131E000200B
:100E5000B9F1110F009001DB112301E009F1010349
:100E60000AAA01A90CA8FFF7E2FEDDE90C70002632
:100E700009F10105834647E001204B4600904FF001
:100E800000470AAA01A90CA8FFF7D1FEDDE90DB0C1
:100E90000C995D46002610B909F101000D18B9EB57
:100EA000050003D4C0F1FF3609F10105A5EB0900E7
:100EB0002BE0B9F1010F01DA4FF001090020B9F17F
:100EC000110F0090484601DD112300E003460AAAF5
:100ED00001A90CA8FFF7ABFEDDE90C704D4600261A
:100EE0008346207800070AD4AB4500DA5D4601A8A6
:100EF000012D04DD411911F8011C302907D04F459F
:100F000002DA17F1040F04DA012082460FE06D1EA9
:100F1000EEE7002F02DCED1B3E4403E0781CA84204
:100F200000DD7D1CB81B00F1010A4FF0004720785E
:100F3000000703D4AA4501DB4FF0FF3A0021B7F1C7
:100F4000004F0DF143088DF8431024D002202B23CD
:100F5000002F01DA7F422D230A21021EA0F1010099
:100F600000DC5FB197FBF1FC97FBF1F201FB1C7C0D
:100F700017460CF1300C08F801CDEEE7A8F101009E
:100F800003702188090501D5452100E06521A0F104
:100F9000010800F8011C09980FA9A1EB0807FF1D23
:100FA00000B10120411901EBEA70A1693844081A27
:100FB000401EA0612078C00602D42046FFF7ABFA9D
:100FC000099828B1D4E901219047206A401C206289
:100FD0002078C00622D52046FFF79DFA1EE0002E9D
:100FE00004DBB34502DD01A8805D00E03020D4E9D8
:100FF00001219047206A401C2062761CAAF1010062
:101000005FEA000A0AD100F019FAC0680168405C82
:10101000D4E901219047206A401C2062281EA5F1D6
:101020000105DCDC07E0D4E9012118F8010B904749
:10103000206A401C2062381EA7F10107F3DC20461D
:10104000FFF77FFA032011B041E600002DE9F04FD1
:1010500004460D46D21D22F0070089B0D0E9009762
:101060004846394603F0DDFF0246F80F01D02D2334
:1010700007E02068810701D52B2302E0202101EA47
:10108000C0038DF820300BB1012000E00020032ABE
:10109000824601D0072A04DB2946204600F0D2F917
:1010A0003FE12078800601D40D2500E0E569C7F313
:1010B0000A560D2D49DA00214FEA175B08464FF01A
:1010C0000000002F00F4400007DA00EB80004FF42E
:1010D000400100EBD07001EA60008115012901DDBB
:1010E0004FF0FF3100224FEA850CBCF1180F06D3F8
:1010F0001346ACF118004FF08052C24003E04FF4A9
:10110000801323FA0CF30CF10C0CBCF1200F04D368
:10111000ACF1200C09FA0CF001E007FA0CF0002900
:101120004FF0004801DD18B90FE00ED140450CD357
:1011300019EB02095F4121B9404502D19F4329EAD9
:101140000209BBEB175F00D0761C2088000502D592
:101150007B48784402E07A487844193808AA30235A
:1011600002F80A30037C0AF10101002E0AF1020A9A
:1011700053546A4602DC4FF0300101E04FF0310178
:101180004FF001088DF8001002D0A6F2FF3603E000
:1011900059EA470100D06B4E002D02DC2178090787
:1011A00004D54FF002082E218DF80110C44600210D
:1011B0000BE0C7F303433F01C35C491C6D1E02F8FB
:1011C0000830052908F1010801DA002DF1DC0021C1
:1011D0000CE000EB1973491C1B786D1E082902F8FE
:1011E00008304FEA091908F1010801DA002DF0DC96
:1011F00021688B0602D516E0A8F10108E04505DD5F
:1012000002EB080313F8013C302BF5D0B8F1000FC6
:1012100009DD02EB080313F8013C2E2B03D109076B
:1012200001D4A8F10108002D05DD3E2102F80810C7
:101230006D1E08F10108407C002E02F8080008F13C
:10124000010804DA2D20764202F8080002E02B2083
:1012500002F808000A214FF47A70864208F101086A
:101260000BDB96FBF0F3303302F8083096FBF0F31B
:1012700008F1010800FB136601E0642E0CDB64201A
:1012800096FBF0F3303302F8083096FBF0F308F1E8
:10129000010800FB136601E00A2E06DB96FBF1F065
:1012A000303002F8080008F1010896FBF1F001FB6C
:1012B0001060303002F80800A16908F1010808EB5D
:1012C000050202EB0A00081AA0612078C00602D4C9
:1012D0002046FFF720F9216A08AE01EB0A002062E0
:1012E00004E0D4E9012116F8010B9047BAF1010A94
:1012F000F7D22078C00602D52046FFF70CF96E46DB
:1013000009E016F8010B3E280FD0D4E901219047DF
:10131000206A401C2062B8F10108F2D22046FFF793
:1013200010F909B00320BDE8F08F206A284420623C
:1013300003E0D4E90121302090476D1EEBD3F8E79C
:101340005244000002FCFFFF10B5436913B1AFF334
:10135000008001E0FFF718F9012010BD127800F1BC
:1013600024010A7000224A700122EDE711684FF053
:10137000FF32E9E710B5436913B1AFF3008001E034
:10138000FFF7A2F9012010BD128800F12401828428
:101390000022C2840122EDE711684FF0FF32E9E735
:1013A00070B516460C46054600F040F8036893F801
:1013B0000101012806D0FF2C0FD8185D68B101206B
:1013C0002C7070BDD3F807013246214603F2071393
:1013D00003442846BDE8704018474FF0FF3070BD09
:1013E000754600F0EBF8AE4605006946534620F01E
:1013F0000700854618B020B5FEF77AFFBDE820400B
:101400004FF000064FF000074FF000084FF0000BC0
:1014100021F00701AC46ACE8C009ACE8C009ACE873
:10142000C009ACE8C0098D467047000010B500F057
:1014300005F8001D10BD00BFE13C000000487047EA
:10144000781E00202DE9F0411F460446032601685E
:10145000072A01F4006004DB08B116A505E016A513
:1014600003E008B115A500E015A521F010002060EB
:10147000A069C01EA0610FB1401EA0612046FFF709
:101480004AF84FB1D4E9012138469047206A401C00
:101490002062C01C206206E0206AFAE7D4E901213C
:1014A00015F8010B9047761EF8D22046FFF749F851
:1014B000BDE8F0814E414E006E616E00494E46001F
:1014C000696E66002DE9F047814616468AB03548B8
:1014D00078440DC88DE80D0032487844801C03AC78
:1014E0000DC884E80D0041F69B300844372190FB7D
:1014F000F1F290FBF1F5A5F1800501FB12041B3C14
:1015000002D56442012000E00020DFF898A0804668
:101510000027FA44AAF1BE0A0EE0E0070AD03246DC
:10152000684607EB470101230AEB810100F022FB2B
:101530008DE8070064107F1C002CEED1194F7F440A
:10154000AE3F19E0E80715D007EB04100DF1180ABB
:1015500090E80E008AE80E00C068F04201D19819A8
:1015600008903246012306A903A800F003FB03AB51
:1015700083E807006D10641C002DE3D14FF00103D8
:1015800032466946B8F1000F03A802D000F0DDFA38
:1015900001E000F0EFFAC9E90001C9F808200AB03B
:1015A000BDE8F0876441000010B50446AFF3008049
:1015B0002046BDE81040FEF786BE00000048704798
:1015C000581E00204FF0013C50F8042B51F8043B0A
:1015D0009A4221D1A2EB0C03934313EACC1317D107
:1015E00050F8042B51F8043B9A4215D1A2EB0C039E
:1015F000934313EACC130BD150F8042B51F8043B5E
:101600009A4209D1A2EB0C03934313EACC13DBD02B
:101610004FF00000704700BFD01A01BAB1FA81F153
:1016200001F0180122FA01F0CB40C1F12001DBB238
:10163000C0B2C01A2CFA01F3D11A914311EAC311B6
:10164000E6D1704701491820ABBEFEE72600020034
:1016500070475FEA400C08BF91F0000F4FEA8C23FF
:101660004FEAC12243EA51514FEA1C5018BF00F51E
:10167000F0404FEA300018BF41F000415FEA6C5C77
:1016800000F02980BCF1FF3F08BF40F08040704768
:10169000130C06BF12044FF0100C4FF0000C130E89
:1016A00004BF12020CF1080C130F04BF12010CF15D
:1016B000040C930F04BF92000CF1020CD30F04BF73
:1016C00052000CF1010C11464FF00002A0F11F0076
:1016D000A0EB0C00704711F0004F08BF704731F0CD
:1016E00000413FF4D5AF0B0C06BF09044FF0100CBE
:1016F0004FF0000C0B0E04BF09020CF1080C0B0F8D
:1017000004BF09010CF1040C8B0F04BF89000CF11C
:10171000020CCB0F04BF49000CF1010CCCF12003EB
:10172000A0EB0C0022FA03F302FA0CF241EA0301E7
:1017300000F10100704720F07F4C80EA030023F0A5
:101740007F47ACEB070303F57C5300F0004003F147
:10175000FF032DE980494FEA154B09B44FEA1443C2
:1017600025EA0B4E24EA03480FF2042606EB132762
:1017700049083E785FEA320203FB0667C7F50007B7
:1017800007FB06F64FEA54374FEAD64606F1020643
:1017900007FB066CCCF1005C4FEA1C472CEA074CB7
:1017A00007FB06F40CFB06F504EB15464FEA96160C
:1017B00034BF00204FF000404FEAD13706FB07FC52
:1017C0004FEA1C4C0CFB0BF7D21B03FB0CF761EB35
:1017D00007010CFB0EF7B0EB074072EB17420CFB56
:1017E00008F734BFA2EB0742B2EB074261EB1741A7
:1017F0004FEA0C444FEA910706FB07FC4FEA1C4CEA
:101800000CFB0BF7B0EBC74072EB573203FB0CF746
:1018100034BFA2EBC742B2EBC74261EB57310CFBBE
:101820000EF7B0EBC70072EB57720CFB08F734BF32
:10183000A2EBC702B2EBC70261EB5771039F4FEAFD
:10184000816141EA921104EBCC044FEAD1374FEAAF
:10185000826206FB07FC42EA90124FEA80604FEA80
:101860001C4C0CFB0BF7D21B03FB0CF761EB0701C5
:101870000CFB0EF7B0EB074072EB17420CFB08F7BE
:1018800034BFA2EB0742B2EB074261EB17414FEACC
:101890008C554FEA910704EB9C2406FB07FC4FEAAA
:1018A0001C4C0CFB0BF7B0EBC74072EB573203FB41
:1018B0000CF734BFA2EBC742B2EBC74261EB573122
:1018C0000CFB0EF7B0EBC70072EB57720CFB08F77E
:1018D00034BFA2EBC702B2EBC70261EB577115EB45
:1018E0004C254FEA816141EA92114FEA82624FEA48
:1018F000D13742EA901206FB07FC44F100044FEA9C
:1019000080604FEA1C4C0CFB0BF7D21B03FB0CF75F
:1019100061EB07010CFB0EF7B0EB074072EB1742CF
:101920000CFB08F734BFA2EB0742B2EB074261EBB6
:10193000174115EB1C154FEA813141EA92414FEAFC
:10194000823242EA90424FEA80304FEA0C7644F10C
:10195000000448EA03434EEA0B484FF0000EB2EB96
:10196000080C71EB030724BF624639464EEB0E0E9E
:101970004FF0000B0018524149414BEB0B0BB2EBFF
:10198000080C71EB03077BF1000B24BF624639465C
:101990004EEB0E0E4FF0000B0018524149414BEB3D
:1019A0000B0BB2EB080C71EB03077BF1000B24BFB0
:1019B000624639464EEB0E0E51EA020718BF46F05A
:1019C000010616EB0E7655F1000254F1000103D525
:1019D000BDE88901BDE80088BDE88901BDE800488F
:1019E000B619524141EB0101A3F101037047808018
:1019F0007F7E7D7C7B7A7978777676757473727169
:101A000071706F6E6E6D6C6C6B6A6A696868676620
:101A100066656464636362616160605F5F5E5E5DB2
:101A20005D5C5C5B5B5A5A59595858575756565526
:101A300055555454535352525251515050504F4F88
:101A40004F4E4E4D4D4D4C4C4C4B4B4B4A4A4A49D8
:101A5000494948484847474747464646454545441B
:101A60004444444343434342424242414141002BA8
:101A70009C4630D477002BD01CB54FEA370703B40F
:101A80004FF010004FF01001BAF1000F06D0BCF17A
:101A9000000FDCBF40F0080040F008014FF00000EC
:101AA0000FBCBDE810400BF1010BBBF1010F08BFEB
:101AB0005FEA170722BF12F1010211F101014FF095
:101AC000004143F1000300F0004043EA000070478A
:101AD000F9D35708D0E746EA064613F1400F4FEA1C
:101AE00016461FDD13F1200FDFBF16430A46002103
:101AF00020335B42BED0C3F1200746EA064602FA15
:101B000007F74FEA164646EA0706C3F1200722FA0E
:101B100003F201FA07F721FA03F14FF0000342EA5A
:101B20000702A7E746EA020646EA06464FEA1646D5
:101B300046EA0106BCBF46EA0646360C4FF00003F3
:101B40004FF000024FF0000194E72DE9804C9A46D7
:101B5000934670B491E8380007C831EA400C48BF9A
:101B600034EA430C03D5FFF7E6FDFFF780FFF0BC36
:101B7000BDE8008C2DE9804C9A46934670B491E8FC
:101B8000380007C810F0804F08BF13F0804F03D112
:101B900000F005F8FFF76BFFF0BCBDE8008C20F00B
:101BA0007F4780EA030023F07F4C07EB0C03A3F58B
:101BB0007C5300F00040A3F1FE0392F0000F00F010
:101BC000B38095F0000F00F077802DE901494FEACE
:101BD00011404FEA144621EA004800FB06FC24EAC3
:101BE000064708FB06F607FB08F800FB07F718EBAB
:101BF00006484CEB164C4FEA124B18EB07484FEADD
:101C000015464CEB174022EA0B4E0BFB06FC25EA6F
:101C100006470EFB06F607FB0EFE0BFB07F71EEB57
:101C2000064E4CEB164C4FF000061EEB074E4CEBED
:101C3000174B18EB0B0840F1000018EB0E0B58EB9C
:101C4000000840F100008F1A4FF000013CBFC9436B
:101C5000661B14BFB5EB040C00213CBFC943F61B47
:101C60004FEA17444EEA8E0E27EA04454FEA1C4716
:101C700004FB07622CEA074C05FB07F70CFB05F693
:101C800004FB0CFC16EB074642EB174216EB0C4626
:101C900042EB1C421BEB060658EB0202414146EAAE
:101CA0009E0601D5BDE80189B619524141EB0101FB
:101CB000A3F10103BDE801894FEA14454FEA11473A
:101CC00024EA054621EA074C05FB07F406FB07F763
:101CD0000CFB06F105FB0CFC11EB074144EB174430
:101CE0004FEA124711EB0C4144EB1C4422EA074C2B
:101CF00005FB07F206FB07F70CFB06F605FB0CFCE1
:101D000016EB074642EB174216EB0C4642EB1C451E
:101D10006A1854F1000148BF7047B619524141EBAF
:101D20000101A3F10103704795F0000F37D04FEA8E
:101D300011424FEA144721EA024624EA074C02FB0B
:101D400007F106FB07F70CFB06F402FB0CFC14EB97
:101D5000074441EB17414FEA154714EB0C4441EBA4
:101D60001C4125EA074C02FB07F506FB07F70CFBB5
:101D700006F602FB0CFC16EB074645EB174516EB87
:101D80000C4645EB1C42121951F1000148BF704747
:101D9000B619524141EB0101A3F1010370474FEA2B
:101DA00014454FEA114724EA054621EA074C05FB92
:101DB00007F106FB07F70CFB06F24FF0000605FBE8
:101DC0000CFC12EB074241EB174112EB0C4251EBBA
:101DD0001C4148BF7047921841EB0101A3F1010378
:101DE0007047FEE704280DDD20280BD0212809D1FB
:101DF0000B70002048708870C8700A71100A487112
:101E0000100C8871002070470020704710B5002228
:101E10000449054801F058FD0449034801F047FD15
:101E2000002010BD140E00200C010020140600201C
:101E300070B50C460A68054601461948FEF7FCFADB
:101E40002168F9B1164800785A281BD1144800F0CF
:101E500069F8B8B113482168026891420FD310495C
:101E60001148FEF7E9FA1048C06903F071F941EC36
:101E7000100B0EA053EC102B03F01CF902E00FA086
:101E800003F018F929461A4801F011FD184801F02D
:101E9000E7FC208881B2284600F02EF8002070BDB3
:101EA0001416002050000020E80500206C696E65C3
:101EB00061725F783A2025660A000000526563650A
:101EC000697665642064617461206C656E6774680E
:101ED0002028256429206C657373207468616E2046
:101EE000657870656374656420282564290A00009C
:101EF0000C01002000207047094A10B5D2F8BC221E
:101F0000D2F814220AB1012010BD0A460146044845
:101F100001F0DAFCBDE81040014801F04FBD0000BF
:101F20000C01002030B50C4605000ED0012C0CD958
:101F3000601E81B2FF22284603F0A2F8291911F889
:101F4000011C814201D1012030BD002030BD70470D
:101F500072B6FEE770B5044600F006F90546601C4F
:101F600002D004480078044400F0FEF8401BA04270
:101F7000FAD370BD6C0000202DE9F84FDFF8BCA14A
:101F80000022012503264FF00F090AF1040BAAF1E4
:101F9000040E00BF0B6805FA02F42340A34270D17F
:101FA0000F7907F00307012F01D0022F16D18768A0
:101FB0004FEA420806FA08FC27EA0C07D1F80CC0E1
:101FC0000CFA08FC4CEA070CC0F808C04768A743A5
:101FD0000C79C4F3001494403C4344600C79E4430E
:101FE000A4070AD0C4684FEA420C06FA0CF7BC43B7
:101FF0008F6807FA0CF72743C7600C7904F00304D5
:10200000022C12D1D40800EB840CDCF820405707D6
:10201000FF0E09FA07F824EA0804D1F8108008FA3C
:1020200007F848EA0408CCF8208004684FEA420C1C
:1020300006FA0CF7BC430F7907F0030707FA0CF711
:10204000274307604C6814F4403F70D03C4C27682D
:1020500047F480472760246822F0030704F4804493
:102060000094384C07EB040CDCF8084897074FEA5B
:10207000177809FA08F7BC43334FB84202D100275A
:1020800024E054E0314FB84201D101271EE0304F27
:10209000B84201D1022719E02E4FB84201D10327DF
:1020A00014E02D4FB84201D104270FE02B4FB84266
:1020B00001D105270AE02A4FB84201D1062705E0E1
:1020C000284FB84201D1072700E0082707FA08F790
:1020D0002743CCF80878DAF800405746D1F804C016
:1020E0009C435FEACC2C00D51C433C60DBF80040ED
:1020F0005F46D1F804C09C435FEA8C2C00D51C439A
:102100003C60DEF800407746D1F804C09C435FEAAB
:102110008C3C00D51C433C60084F083F3C68D1F81C
:1021200004C09C435FEACC3C00D51C433C60521C7D
:10213000102AFFF42FAFBDE8F88F0000083C0140E3
:1021400044380240003001400000024000040240D8
:1021500000080240000C024000100240001402403F
:1021600000180240001C02400148806870470000CF
:102170006C00002002488168027811448160704739
:102180006C0000200B4810B5016841F4007101603B
:10219000016841F480610160016841F4807101606F
:1021A000032000F06FF80F2000F006F800F024F88C
:1021B000002010BD003C024070B50D4D04464FF4A8
:1021C0007A712878B1FBF0F00A490968B1FBF0F0A8
:1021D00001F00EF848B9102C07D200222146501EFB
:1021E00000F030F800206C6070BD012070BD000070
:1021F0006C000020780000200A4808B5016841F40E
:1022000080410160006800F4804000900548001F94
:10221000016841F080510160006800F0805000903A
:1022200008BD000044380240002809DB00F01F020E
:10223000012191404009800000F1E020C0F8001128
:1022400070470000F0B40E4B1B680C46C3F302232A
:10225000C3F10705042D00D90425191D072901D252
:10226000002300E0DB1E012606FA05F1491E21408D
:1022700099409E40761E16403143F0BC02F0E9BE04
:102280000CED00E0064900F0070208684FF6FF0376
:10229000184040EA0220034A1043086070470000DB
:1022A0000CED00E00000FA05704700684162002074
:1022B0007047F0B50368586A39B19C6A4FF482766A
:1022C00000EB144400204D1E0AE040EA02409862F0
:1022D0000FE006EB8007DF59401C04EB1744C0B247
:1022E000A842F6D344EA02404FF4807202EB810127
:1022F00058500020F0BDD0F8E00401F0F2BD01EB31
:10230000C10200EB8202D0F8E004126A01F047BD7E
:1023100001EBC10200EB8202D0F8E004D2F86022A7
:1023200001F098BDD0F8E00401F0DDBD0A0601F02F
:102330000F0101EBC10100EB810101D5143101E076
:1023400001F51571006802F0B9BC70B504460B06C2
:1023500001F00F0000EBC00104EB81014FF001021E
:102360004FF0000502D54A75143103E081F855524B
:1023700001F51571087094F89404012808D084F8C8
:102380009424206802F0B4F984F89454002070BDBD
:10239000022070BD70B5044601F00F002279904212
:1023A00001D9012070BD0B0601F00F0101EBC10145
:1023B00004EB81014FF001024FF0000502D54A7590
:1023C000143103E081F8555201F515718D700870D4
:1023D00094F89404012808D084F89424206802F02A
:1023E000F9FA84F89454002070BD022070BD01F009
:1023F0000F0101EBC10100EB8100D0F868027047CA
:102400002DE9F04104460F0601F00F0000EBC0017A
:1024100004EB81014FF001064FF0000502D54E7527
:10242000143103E081F8555201F51571C2F30A0227
:1024300008708A600B714A7802B14883022B00D180
:102440004D7194F89404012809D084F894642068AC
:1024500002F0A0F8284684F89454BDE8F0810220E8
:10246000FBE710B501F00F0404EBC40100EB8101A0
:10247000C1E998230023C1F8683281F8553281F808
:102480005442837901F51571012B00D1CA6182791B
:10249000006802F0F7FA002010BD70B504460D4642
:1024A00001F00F002179884201D9012070BD290671
:1024B0004FF000064FF0010206D500EBC00104EB1F
:1024C00081014A75143107E005EBC50104EB810178
:1024D00081F8556201F515718A70087094F89404BA
:1024E000012807D084F89424206802F09FFA280776
:1024F00002D007E0022070BDA17904F29C4220685E
:1025000002F03CFA84F89464002070BD10B501F02C
:102510000F0404EBC40100EB8101C1E9082300238F
:102520008B6201234B7501F8144F8379012B00D185
:10253000CA618279006802F0A5FA002010BD00008F
:102540002DE9FC5F05680446284602F053FC00288C
:102550007DD1206802F07AFC002878D0D5F80808F0
:10256000C0F30D20C4F8D404206802F06FFC80078B
:1025700004D52068416901F002014161206802F040
:1025800065FCC10604F29C40009034D52068816946
:1025900021F0100181612F6A07F00F0000EBC000ED
:1025A00004EB8006C7F3434006F51576022802D0F7
:1025B000062811D01AE047F6F070074216D0C7F38C
:1025C0000A1217462846F16802F044FCF0683844C5
:1025D000F0607069384408E008222846009902F04B
:1025E00039FC7069C7F30A11084470612068816979
:1025F00041F010018161206802F028FC00034FF0D7
:10260000080B4FF0000A4FF001097CD50026206826
:1026100002F0FBFB074674E0F80770D0F1B22068C7
:1026200002F00CFC8046C00707D005EB4611C1F84C
:10263000089B3146204600F055FE5FEA087024D51D
:1026400005EB4611C1F808BB2068016C00E023E2ED
:1026500000EB46100191D0F8082BFB4B994205D9AD
:10266000110403D54FF40041C0F8081B204600F0C8
:10267000F6FAF5490198884207D9A079012804D1D2
:1026800020680121009A02F079F95FEAC86004D558
:1026900005EB46111020C1F8080B5FEA88701DD5C4
:1026A0006869000605D5D5F8040840F48061C5F8CE
:1026B000041806EBC60004EB800090F8571200F5F2
:1026C0001570012905D180F803A0F1B2204600F071
:1026D000E9F905EB46110220C1F8080B5FEA8860B2
:1026E00004D505EB46102021C0F8081B5FEA88409E
:1026F00005D505EB46104FF40051C0F8081B7F08C4
:10270000761C002F88D1206802F0A0FB40036ED514
:10271000206802F073FB0746002666E0F80762D0E7
:10272000F1B2206802F078FB8046C00723D006F0A3
:102730000F01D5F8342809FA01F18A43C5F8342885
:1027400005EB4611C1F80899A07901280FD106EBD5
:10275000C60004EB8000D0E907211144016236B9BC
:10276000606A20B920680121009A02F007F9F1B2ED
:102770002046FFF7C4FD5FEA087003D505EB46115C
:10278000C1F808B95FEAC86004D505EB461110200E
:10279000C1F808095FEA486004D505EB46104021FE
:1027A000C0F808195FEA887016D53146284602F04D
:1027B000F6FA06EBC60004EB8000C17D1430012957
:1027C00005D180F803A0F1B2204600F067F905EBCF
:1027D00046110220C1F808095FEA086003D53146B6
:1027E000204600F0E5FD7F08761C002F96D120687A
:1027F00002F02CFB002811DAD5F8040820F00101C2
:10280000C5F8041894F8CC0401282BD0204600F019
:102810000BFA2068416901F000414161206802F033
:1028200015FB00050BD5D5F80808C00702D02046D7
:1028300000F03EFA2068416901F4006141612068BE
:1028400002F004FBC00467D5D5F8040820F00100AD
:10285000C5F804081021206802F0A1FA00214FF603
:102860007F3220E084F8CCA400212046FFF71CFD35
:10287000CFE700BF05EB4110C0F80829D0F80039B8
:1028800023F40013C0F80039C0F8082BD0F8003B3F
:1028900023F40013C0F8003BD0F8003B43F0006382
:1028A000C0F8003B491C20798842E3D8D5F81C08C1
:1028B00040F00111C5F81C18E07B002828460DD017
:1028C000D0F8840840F00B01C5F88418D5F8440806
:1028D00040F00B012846C5F844180DE0D0F8140864
:1028E00042F22B010843C5F81408D5F8100840F04F
:1028F0000B012846C5F81018D0F8000820F4FE6136
:10290000C5F80018A1792068009A02F037F820680D
:10291000416901F480514161206802F097FA800416
:1029200015D5206801F076FE206802F056FAE071B5
:1029300000F070FA0146E279206802F0E9FA2046D8
:1029400000F05CF92068416901F4005141612068A0
:1029500002F07CFA000707D5204600F069F92068EC
:10296000416901F008014161206802F06FFA000638
:1029700016D5A86920F08001A96101260DE000BFED
:1029800006EBC60004EB800090F85702012803D143
:10299000F1B22046FFF7CAFC761C2079B042EFD88E
:1029A000206802F053FAC0021FD501264F4614E0FA
:1029B00005EB4610D0F8001906EBC60004EB8002C8
:1029C000107E012808D1002906DAF0B240F080011B
:1029D000D7752046FFF7AAFC761C2079B042E7D8CD
:1029E0002068416901F480114161206802F02EFAEB
:1029F000800234D501204A4629E000BF05EB401192
:102A0000D1F8001B00EBC00304EB830393F858627A
:102A1000012E1BD1002919DA94F8D46401F4803115
:102A200006F00106B14211D183F85722A96941F09D
:102A30008003AB616969090608D4D5F8040840F43D
:102A40000070C5F8040805E00A30544F401C217995
:102A50008142D3D82068416901F4001141612068A6
:102A600002F0F4F9400007D52046FFF744FC206847
:102A7000416901F080414161206802F0E7F94007B7
:102A80000AD520684568680702D52046FFF74AFC4A
:102A90002068416829434160BDE8FC9FD0F8E0040C
:102AA00001F073BAD0F8E00401F083BAF8B504007D
:102AB00005D094F895042668002510B106E00120A1
:102AC000F8BD84F89454204600F056F8032084F8AA
:102AD0009504B6F1A04F00D1A571206801F048FF20
:102AE000207C8DF8000094E80F0001F0A1FD022683
:102AF000B8BB0021206802F0CCF990BB0020012770
:102B00000DE000BF00EBC00104EB81014F750875BB
:102B1000C8850D76CD610D62401CC0B24D62217931
:102B20008142EFD8002011E000EBC00104EB8101ED
:102B300081F8555281F8540281F85852C1F85C521C
:102B4000C1F86052401CC0B2C1F864522179814280
:102B5000EAD8207C8DF8000094E80F0001F04AFECE
:102B600010B184F89564AAE7657484F895742068B8
:102B700001F032FE0020F8BD10B586B004461421E5
:102B80006846FDF79EFC2068B0F1A04F2FD1194890
:102B90000021026842F001020260006800F00100BA
:102BA00005904FF4C05000900220CDE901010320B0
:102BB00003900A20049069460F48FFF7DDF90D489D
:102BC000001D016841F0800101600A48143001686D
:102BD00041F4804101600068002200F480400590CB
:102BE00011464320FFF72EFB4320FFF71DFB06B0E5
:102BF00010BD0000303802400000024070B50446AD
:102C0000C079012570B1022801D0FFF7A1F929464A
:102C1000D4F8E00401F03BFAD4F8E004BDE87040D9
:102C200001F0F0B90025F2E7D0F8E00401F018BA9D
:102C3000D0F8E00401F01EBA10B5044690F89404F0
:102C400001280AD0012084F894046174206802F0FD
:102C50004EF9002084F8940410BD022010BDD0F875
:102C6000E02400F29C41104601F01DBA10B5044664
:102C7000006894F89414012909D0012184F894146F
:102C8000C168490609D5617B012902D005E002200F
:102C900010BD816B41F480318163206802F05DF8E2
:102CA000206801F08BFD002084F8940410BD000022
:102CB00010B50446D0F8E00401F037FA2068D0F8E7
:102CC000001E41F00101C0F8001EE07A002804D087
:102CD0000248016841F00601016010BD10ED00E0FE
:102CE0002DE9F0470E46050065D0DFF81481D8F8CD
:102CF0000000F7B200F00700B04207D288F8007079
:102D0000D8F8000000F00700B04254D128683D4CCC
:102D1000810712D5400703D5206840F4E0502060B9
:102D20002878000703D5206840F4604020602068C0
:102D3000A96820F0F000084320602878C0072DD053
:102D4000304968680839012812D0022813D00328B6
:102D500011D00968890700292DDA216821F00301C3
:102D600001432160FFF700FA814641F2883A0EE004
:102D700009688903EFE709688901ECE7FFF7F4F9CF
:102D8000A0EB0901514502D90320BDE8F087206876
:102D9000696800F00C00B0EB810FEFD1D8F800109B
:102DA000404601F00701B14207D90770006800F002
:102DB0000700B04201D00120E7E72878400705D599
:102DC0002068E96820F4E050084320602878000774
:102DD00006D52068296920F4604040EAC1002060DF
:102DE00000F01EF82168084AC1F30311515CC84085
:102DF0000649086006480068FFF7DEF90020C4E7CE
:102E0000003C024008380240445500087800002089
:102E10007000002001480068704700007800002022
:102E2000154810B5006810F00C02144813D014496E
:102E3000042A0FD0082A0ED10F4C241F22682368C1
:102E400002F03F025B0207D52068C0F38810A0FBA8
:102E5000010106E0084610BD2168C1F38811A1FBFD
:102E600000010023FDF756FA2168C1F30141491C16
:102E70004900B0FBF1F010BD083802400024F40016
:102E8000001BB7002DE9F84F04006ED02078DFF862
:102E90004C93C007A9F104054AD009F10400016868
:102EA000C1F38101012908D00068C0F38100022824
:102EB0000AD1D9F80000400206D52868800337D52A
:102EC00060680028E1D033E06068B0F5803F10D042
:102ED000B0F5A02F286810D020F480302860286832
:102EE00020F4802028606068A8B1FFF73DF906460D
:102EF0000DE0286840F48030F4E740F4802028603A
:102F0000F7E700BFFFF730F9801B642873D8286803
:102F10008003F7D50CE0FFF727F9064605E000BF70
:102F2000FFF722F9801B6428F0D828688003F7D4C3
:102F30002078DFF8AC8280074FF0000A3ED5A74822
:102F4000001D016811F00C0F08D00068C0F381006B
:102F500002280BD1D9F80000400207D42868800766
:102F600016D5E068012800D112E033E1E068B8B17D
:102F70000120C8F80000FFF7F7F8064605E000BF9B
:102F8000FFF7F2F8801B0228C0D828688007F7D521
:102F90002868216920F0F80040EAC10028600DE0AF
:102FA000C8F800A0FFF7E0F8064604E0FFF7DCF8F9
:102FB000801B02281FD828688007F7D420780007D4
:102FC00022D5864F87486169703771B10121016050
:102FD000FFF7CAF8064604E0FFF7C6F8801B022890
:102FE00009D838688007F7D50EE0C0F800A0FFF7D1
:102FF000BBF8064605E082E0FFF7B6F8801B022822
:103000007DD838688007F7D42078400768D5DFF886
:10301000CCB100270BF13C0BDBF80000C0000BD457
:10302000DBF8001041F08051CBF80010DBF8000015
:10303000012700F0805000906B4E3068C00510D41E
:10304000306840F480703060FFF78EF8009005E043
:10305000FFF78AF80099401A022850D83068C00556
:10306000F6D55E4EA0686C3601280FD00528306872
:1030700010D020F001003060306820F00400306093
:10308000A068B8B1FFF770F800900FE0306840F02A
:103090000100F4E740F004003060F7E7FFF764F860
:1030A0000099411A41F28830814266D83068800721
:1030B000F4D50EE0FFF758F8009007E0FFF754F85A
:1030C0000099411A41F28830814256D83068800711
:1030D000F4D42FB1DBF8001021F08051CBF80010B0
:1030E000A069C8B33D49091D0968C1F381010229DE
:1030F0004AD00228504607D0C8F8600000E03CE003
:10310000FFF732F804463BE04746C8F86000FFF797
:103110002BF8064605E000BFFFF726F8801B0228C3
:103120002BD828688001F7D4D4E907010843A16AA5
:103130002E4A490802EB0141626A41EA82110843C2
:1031400094F82C1040EA0161C9F80010012038669B
:10315000FFF70AF8044606E03EE000BFFFF704F878
:10316000001B022809D828688001F7D534E000BF89
:10317000FEF7FAFF001B022802D90320BDE8F88FF2
:1031800028688001F4D427E00128F7D0D9F800009E
:10319000E26900F4800191421CD1226A00F03F01F3
:1031A000914217D147F6C071626A0140B1EB821FAC
:1031B00010D1A26A4FF0FF3300F4403103EB52020A
:1031C000B1EB024F06D194F82C1000F07060B0EB18
:1031D000016F01D00120D1E70020CFE70438024081
:1031E00000004742800E4742007000400000FFFF91
:1031F00010B5401EB0F1807F01D3012010BD4FF00B
:10320000E02460610F21601701F023FF0020A0611E
:1032100007202061002010BDFEE70000F0B500236C
:103220000A24302537261F4611E000BFB4EB107F7B
:1032300002D905EB107C01E006EB107C01F813C00D
:1032400001EB430C00015B1C8CF80170DBB2934274
:10325000ECD3F0BD094808B5016841F001010160F7
:10326000016801F001010091016841F080010160F5
:10327000006800F08000009008BD00003038024077
:1032800010B500220F49104800F064FD08B1FEF7A8
:103290005FFE0E490C4800F074FF08B1FEF758FEBF
:1032A0000B49094800F0F8FA08B1FEF751FE06484C
:1032B00000F0EAFF002803D0BDE81040FEF748BE4A
:1032C00010BD0000000000200C010020D4000020F0
:1032D00054000020FEE7FEE70148FFF731B9000087
:1032E000741900202DE9F04103680D4604461E6C58
:1032F00003EB4511D1F8080B94F806E04FF40047B2
:103300004FF0200C04F29C42BEF1010F09D0DFF80F
:1033100098E0764539D1020432D500BFC1F8087B68
:103320003FE0224B5FEA007E04D59E4239D900047B
:10333000F4D436E05FEA806E02D5C1F808CB30E005
:1033400010F0280F2DD19E4201D90004E6D405EBE0
:10335000C50004EB8000D1F8101BD0F87432C1F323
:103360001201591AC0F8681200F51570ADB9036959
:103370001BB1C2681144C1600FE0012120680AE05E
:1033800080060AD5C1F808CB07E035B9D4F8640245
:1033900018B90021184601F0F1FAE9B22046FEF70B
:1033A000B7FF0020BDE8F0810A31544F0A30544F76
:1033B0002DE9F84F0E4601EBC60100EB8104814672
:1033C0000568D4E909101434884202D90120BDE807
:1033D000F88F081AA168814200D20846C01C8708ED
:1033E00005EB46181BE000BFA0EB010AA0685045A2
:1033F00000D282460AF10300870899F8060000907F
:103400001FFA8AF3F2B22846E16801F0F5FDE1689F
:1034100001EB0A00E060616901EB0A006061D8F825
:10342000180980B2B84205D3D4E90401814201D21F
:103430000028D9D1D4E90401884208D806F00F0148
:1034400001208840D5F834188143C5F8341800208D
:10345000BDE7704770470178407841EA0020704727
:10346000FEF788BE30B593B030216846FDF729F8E5
:1034700014210CA8FDF725F81D480025016841F02E
:1034800080510160006800F0805011901948016877
:1034900041F4804101600068022400F480401190F2
:1034A00001200090000401908001CDE90640062033
:1034B0000890A820CDE9090407200B906846FFF783
:1034C000E1FC08B172B6FEE70CA90F2081E83100DB
:1034D0004FF4A0500F904FF48050109005210CA88D
:1034E000FFF7FEFB002801D072B6FEE713B030BD37
:1034F00040380240007000400248016841F4700109
:103500000160704788ED00E02DE9F0410C46D0F8ED
:10351000D412D0F8C82200EB8101D1F8C01229B32F
:1035200004F00F0606EB860300EB83050027AB696A
:103530004BB106EBC60602EB8602D269B3FBF2F68C
:1035400002FB1632A2B1C1F81472D0F8D42200EBFB
:103550008200D0F8C40203692BB1D1F808022246D8
:1035600001F5047198470020BDE8F0810320FBE7D6
:1035700000231A462146AF6100F0E4FDF3E770B581
:103580000546D0F8D40205EB8000D0F8C04294B1D3
:10359000284600F0B7FCC4F80C02D5F8D412D4F8D1
:1035A000040205EB8101D1F8C412CA6804F5037165
:1035B0009047002070BD032070BD000070B5224D03
:1035C0000446297800F0E2FB2878002600F00F007E
:1035D00000EB800004EB800086846978204600F0D0
:1035E000D5FB687800F00F0000EB800004EB800052
:1035F000A0F86461A978204600F0C8FBA87800F024
:103600000F0000EB800004EB80008684C684D4F8B1
:10361000D40204EB8000D0F8C01299B1D0F8C402F3
:1036200040688047D4F8D40204EB8000D0F8C00290
:1036300000F0ABFFD4F8D40204EB8000C0F8C06205
:10364000C4F8BC62002070BD8000002010B5D0F826
:10365000D41200EB8100D0F8C04284B1D0F8C4127B
:1036600059B194F80002FF2807D08B6894F8012222
:1036700021469847FF2084F80002002010BD032057
:1036800010BD00000A21018000487047840000201E
:1036900070B5064682210C4800F0FBFA0546012170
:1036A000094800F0F6FA04468121074800F0F1FAD3
:1036B0000DB11021A971402104B1A18000B1818018
:1036C00043203080004870BD9000002070B5064651
:1036D00082210D4800F0DDFA054601210A4800F07C
:1036E000D8FA04468121084800F0D3FA0DB1102120
:1036F000A9714FF4007104B1A18000B18180432011
:103700003080014870BD00009000002070B5064672
:1037100082210C4800F0BDFA05460121094800F05D
:10372000B8FA04468121074800F0B3FA0DB1102120
:10373000A971402104B1A18000B181804320308073
:10374000004870BD900000202DE9F04704464FF47A
:103750000775284600F01AFF06004FF0000863D0F6
:103760002946FCF7AEFED4F8D4023C4D04EB8000B1
:103770004FF01009C0F8C062C4F8BC62207C4FF45E
:10378000007A0127F0B3402302222978204600F076
:1037900024FC2878402300F00F0000EB800004EBAD
:1037A0008000878402226978204600F016FC687841
:1037B000082300F00F0000EB800004EB80000322E0
:1037C000A0F86471A978204601F00F0101EB810196
:1037D00004EB8101A1F82690A97800F0FEFBA878FF
:1037E00000F00F0000EB800004EB80008784C6F837
:1037F0000482D4F8D402474604EB8000D0F8C40217
:10380000006800E018E006F50176804737617761CF
:1038100032687AB1207CF8B140236978204600F004
:10382000E8FB0020BDE8F087D4F8D41204EB810156
:10383000C1F8C0820220F5E75346022229782046CB
:1038400000F0CBFB2878534600F00F0000EB80001F
:1038500004EB80008784A5E75346DEE78000002064
:1038600010B5D0F8D41200EB8101D1F8C01259B1D3
:10387000027C084C002AD1F8042207D0402361784A
:1038800000F0B7FB002010BD032010BD4FF4007303
:10389000F5E700008000002039B1D0F8D42200EB19
:1038A0008200C0F8C4120020704703207047D0F88F
:1038B000D42200EB8200D0F8C00218B1C0F8041284
:1038C0000020704703207047D0F8D43200EB83000B
:1038D000D0F8C00228B1C0F81022C0F808120020A9
:1038E0007047032070472DE9FC410646D0F8D4020A
:1038F0000C4606EB80000021D0F8C0728DF8001055
:10390000ADF804100D4637B1217811F060022FD0C8
:10391000202A4BD102E00320BDE8FC81E288F2B10D
:1039200009060DD5D0F8C40263783946D0F808C02E
:103930001846E047E288072A00D9072239462DE0D9
:10394000607887F80002E088402800D34020C2B2A7
:1039500087F801223946304600F081F82BE0D0F894
:10396000C40263780022866821461846B04722E0E8
:10397000607830B101281ED00A2809D00B2815D153
:1039800010E096F89C02032810D1022201A905E05C
:1039900096F89C02032809D101226946304600F0BE
:1039A00078F808E096F89C02032804D021463046B7
:1039B00000F04AF803252846AEE7000010B5D0F81D
:1039C000D41200EB8101D1F8C02201211AB1D2F842
:1039D000143213B116E0032010BD0121C2F81412F5
:1039E0000949D2F81032097801F00F0404EB84047D
:1039F00000EB8404A361D2F81032D2F8082200F060
:103A0000A1FB0021084610BD8000002010B5D0F8B1
:103A1000B82200245268904700B10324204610BD0C
:103A20000020704700207047134610B50A46002159
:103A300000F0DFFA002010BD134610B50A46002141
:103A400000F080FB002010BD10B50446802100F07E
:103A50005AFB2046BDE81040002100F054BB10B5D1
:103A60000323C0F89432C0F858211346C0F85C21F3
:103A70000A46002100F0BDFA002010BD10B5052156
:103A8000C0F8941200231A46194600F0B2FA00203A
:103A900010BD10B50223C0F8943282611346C26192
:103AA0000A46002100F04EFB002010BD10B5042195
:103AB000C0F8941200231A46194600F043FB002078
:103AC00010BD000010B50A46024903A000F00FF92E
:103AD000004810BDE803002043444320436F6E6656
:103AE000696700001220088000487047200000200D
:103AF00010B50A46024903A000F0F9F8004810BDCD
:103B0000E803002043444320496E74657266616394
:103B10006500000004200880004870471C00002059
:103B200010B50A46024903A000F0E1F8004810BDB4
:103B3000E803002053544D6963726F656C656374CC
:103B4000726F6E696373000010B50A46024903A0E4
:103B500000F0CDF8004810BDE803002053544D3369
:103B600032205669727475616C20436F6D506F72AC
:103B70007400000010B51A2008800A480168001D72
:103B80000468001D0068081809D008220649FFF7DC
:103B900045FB0549042210312046FFF73FFB024850
:103BA000801E10BD107AFF1F36000020F8B50446B5
:103BB0000020ADF8000048880D46010A08295FD2B0
:103BC000DFE801F05E0409175E5E3C45D4F8B412EC
:103BD000207C0A6819E0207C02260028D4F8B8026C
:103BE00005D0C16A684688470146467039E0816A57
:103BF000F8E7C0B2062843D2DFE800F0030A101449
:103C0000181CD4F8B402426805E0694690471CE0ED
:103C1000D4F8B402826892B3207CF6E7D4F8B402F8
:103C2000C268F8E7D4F8B4020269F4E7D4F8B40241
:103C30004269F0E7D4F8B4028269ECE7207CF0B97D
:103C4000D4F8B802416B68468847014609E0207CF9
:103C5000A8B9D4F8B802016B684688470146072026
:103C60004870EA888AB1BDF8000040B1824200D9AC
:103C70000246ADF800202046FFF70BFFF8BDFFE736
:103C800029462046FFF7E0FEF8E72046FFF70EFF43
:103C9000F4E778B50E4642880178002504468A424A
:103CA00012D9ADF800100AE0694600F019F8417821
:103CB000052904D181780546B14205D000256188E7
:103CC000BDF800209142EFD8284678BD014600207B
:103CD00002E0401CC0B2491C0A78002AF9D17047A2
:103CE0000A8803781A440A8001780844704770B53E
:103CF00016460D46002820D00446FFF7E7FF0221B4
:103D000001EB40014FF40070814204D82046FFF7D8
:103D1000DDFF4000801C3080307828700320687000
:103D20000220002206E02954401CC0B22A54401C44
:103D3000C0B2641C21780029F5D170BD01004FF09C
:103D4000000004D0012901D0022901D003207047CE
:103D50000120704778B10023C0F8B832C0F8C432EF
:103D6000C0F8D03209B1C0F8B412012180F89C1219
:103D7000027000F0CBB80320704710B5D0F8C8022D
:103D8000FEF708FBBDE81040FFF7D8BF10B5D0F82C
:103D9000C802FEF7DAFABDE81040FFF7CFBF2DE901
:103DA000F04117460446002521B194F89C020328EF
:103DB00042D04CE0D4F8941204F11400022935D119
:103DC000D0E902639E4206D9F21A82603946204643
:103DD000FFF732FE0FE0B34214D14068984211D38E
:103DE000D4F8981288420DD2002211462046FFF7DF
:103DF00023FEC4F8985200231A461946204600F0C4
:103E0000F8F813E094F89C02032808D1D4F8B8021B
:103E1000C16821B1C4F8D452C168204688478021C6
:103E2000204600F070F92046FFF728FE94F8A00223
:103E300068B184F8A0520AE0D4F8B802426932B1FD
:103E4000C4F8D452426920469047002800D100208F
:103E5000BDE8F08170B513460446002221B194F804
:103E60009C02032830D03AE0D4F8941204F5AA70EA
:103E7000032934D1D0E902518D420AD96A1A8260ED
:103E80000846824200D3024619462046FFF7CCFD81
:103E900025E094F8AA0210F01F0003D0012802D0F8
:103EA000022800D0002294F89C02032808D1D4F8FC
:103EB000B802016921B1C4F8D422016920468847BB
:103EC0002046FFF7F3FD0AE0D4F8B802836933B166
:103ED000C4F8D422826920469047002800D10020EF
:103EE00070BD0020704710B50024012180F89C129D
:103EF000D0F8B82222B152680179904700B103246A
:103F0000204610BDD0F8C802FEF771BA10B501788E
:103F100039BB15490222C1F8E004C0F8C8124FF0BD
:103F2000A040086004200871CA71002088714A729C
:103F30008872C87208738873C8730846FEF7B6FDA6
:103F400008B1FEF705F880210748FEF7AEF94022D8
:103F500000210548FEF7ADF9802201210248FEF755
:103F6000A8F9002010BD0000741900200A0601F015
:103F70007F01D0F8C80201EBC10100EB810001D53F
:103F8000807D704790F85602704710B5D0F8D42263
:103F900000EB8202D2F8B82222B190F89C32032BB7
:103FA00002D004E0032010BD126A02B19047002045
:103FB00010BD10B5D0F8D42200EB8202D2F8B8229E
:103FC00022B190F89C32032B02D004E0032010BDF4
:103FD000526A02B19047002010BD10B51C4613462E
:103FE000D0F8C8022246FEF70BFABDE81040FFF7F2
:103FF000A5BE10B5D0F8C802FEF733FABDE81040F0
:10400000FFF79CBE2DE9F04100260125044680F80B
:104010009C52C4F894626660C4F8A46280F8A062FE
:10402000D0F8B80230B1426822B100212046904752
:1040300000B103260022402311462046FFF7CDFFA2
:104040004027A4F864513B46002280212046C4F852
:104050006071FFF7C2FFA58430462762BDE8F0819A
:1040600090F89C12042903D190F89D1280F89C12BC
:104070000020704710B590F89C12032905D1D0F8A4
:10408000B81211B1C96901B18847002010BD01748F
:104090000020704710B5D0F8C802FEF7CDFDBDE88E
:1040A0001040FFF74BBE70B5044600F2AA2005464B
:1040B00000F051F80120C4F89402B4F8B002C4F83A
:1040C000980294F8AA0210F01F010AD001290ED01C
:1040D000022912D000F080012046BDE8704000F0B7
:1040E00012B829462046BDE8704000F0CFB82946F6
:1040F0002046BDE8704000F00FBA29462046BDE8D2
:10410000704000F059B910B5D0F8C802FEF7C5F9F3
:10411000BDE81040FFF712BE10B5D0F8C802FEF798
:10412000A5FDBDE81040FFF709BE90F89C120429D8
:1041300003D090F89C1280F89D12042180F89C1204
:104140000020704710B5D0F8C802FEF7DFF9BDE8CF
:104150001040FFF7F3BD70B5054611F8010B28704C
:10416000087868704C1C2046FFF775F96880A41C1D
:104170002046FFF770F9A880A01CFFF76CF9E880D3
:1041800070BD38B504460020ADF80000A1B1C4F8F8
:10419000B812D4F8D40204EB8000D0F8B802C16A97
:1041A00019B168468847C4F8D002D4F8D802401C38
:1041B000C4F8D802002038BD032038BD02460020D4
:1041C000D2F8B832002B02D01B681046184770474F
:1041D0002DE9F04188462B4E897800250446317040
:1041E000012906D941462046FFF72EFC0320BDE8F1
:1041F000F08194F89C02022702280CD003281DD0DD
:1042000041462046FFF720FC31782046FFF7FEFBB1
:1042100003252846EBE789B320466160FFF7CEFF10
:10422000050004D041462046FFF70EFC1DE0204665
:10423000FFF73CFC032084F89C02EAE7C1B1606808
:1042400088421BD0C1B22046FFF7E0FB3178204600
:104250006160FFF7B3FF050010D041462046FFF72D
:10426000F3FB21792046FFF7D1FB84F89C72D0E75D
:1042700084F89C7220466160FFF7C8FB2046FFF778
:1042800015FCC6E77C000020FFF746BF2DE9F04192
:104290000A78002512F060020CD0202A01D0402AB2
:1042A0007DD1D0F8D42200EB8202D2F8B8229268F5
:1042B000904731E04B78002201260A2B6FD2DFE8CD
:1042C00003F041666E586E08056E2D29FFF76EFCEF
:1042D00067E004468888D8B9C888C8B94888802863
:1042E00016D200F07F0794F89C02032810D084F8BF
:1042F0009E7239462046FFF7CDFE2046FFF7D6FBDB
:104300001FB1022084F89C024BE084F89C6248E0D4
:10431000204644E0FFF75CFF054642E0CB88012BD6
:104320003DD190F89C32012B04D0022B02D0032BFC
:1043300035D104E08260012200F1080116E001227B
:10434000011D13E090F89C22012A03D0022A01D01B
:10435000032A24D1CA88022A21D1C660D0F8A41227
:1043600009B10321C160022200F10C01FFF791FBAA
:1043700017E04A88012A02D0022A03D00FE0C0F8D1
:10438000A46216E08988090A80F8A01211E090F86A
:104390009C32012B08D0022B06D0032B04D0FFF750
:1043A00053FB2846BDE8F08149880129F9D1C0F8BE
:1043B000A422FFF77BFBF4E72DE9F04105460878DE
:1043C0000C790E464FF0000810F060000BD020284A
:1043D00001D040286AD121462846FFF721FBFF285B
:1043E00000D0D8B395E07078C8B3012824D0032852
:1043F0005CD195F89C02022802D0032856D10CE02B
:10440000002C53D0802C51D021462846FFF77BFE4C
:1044100080212846FFF777FE7BE0708840B93CB1E9
:10442000802C05D0C88818B921462846FFF76BFEB6
:104430002846FFF73BFB6CE095F89C020228DFD092
:10444000032863D1708880BB600603D021462846CC
:10445000FFF793FC2846FFF729FBBCE700E00AE0E2
:10446000C5F8D402D5F8B8028268F2B131462846C0
:10447000904780464DE095F89C020027022802D024
:10448000032843D113E00CB1802C3FD1200604F067
:104490007F0000EB800005EB800101D5143101E0C5
:1044A00001F5AA7102220F602CE032E02EE0200616
:1044B00004F00F0000EB800005EB800009D5808C34
:1044C00020B304F07F0000EB800005EB800614367B
:1044D0000AE0B0F86401C8B104F07F0000EB80008E
:1044E00005EB800606F5AA764CB1802C07D0214654
:1044F0002846FFF73BFD10B10120306000E0376037
:10450000022231462846FFF7C4FA02E02846FFF7A8
:104510009BFA4046BDE8F08170B505460878002456
:104520000E4610F0600003D0202801D0402827D18B
:1045300095F89C02012803D0022801D003281FD13E
:10454000B088C1B201291AD8C1B22846FFF76AFA69
:10455000FF280CD058B9D5F8B8128A683AB1C5F816
:10456000D4028A68314628469047044600E0032476
:10457000F088204307D12846FFF798FA03E0314638
:104580002846FFF761FA204670BD70470048704723
:104590005417002070B50A78012302F00F054E78F9
:1045A000AB401B4CD0F81C58012E17D045EA0343F2
:1045B000C0F81C3800EB4210D0F8002B12040BD4CA
:1045C000D0F8002B0B890979C3F30A031A4344EA94
:1045D00081410A43C0F8002B002070BD9BB21D43EF
:1045E000C0F81C5800EB4210D0F800391B04F3D47B
:1045F000D0F800390D890979C5F30A0589042B43E0
:1046000041EA82510B432343C0F80039E4E700003C
:1046100000800010D0F800196FF30A01C0F80019EB
:10462000D0F8041841F48071C0F8041800207047D5
:1046300070B50D460446C2F3072104981E460129B1
:104640001BD0E06840F04000E060204600F032F807
:10465000C6F307210029A16B26D021F48031A16384
:10466000C5F30741012907D1A16841F00601A16006
:10467000A16841F02001A16070BDA16B21F48031DF
:10468000A163E1680A4A1140E160E16821F4401148
:10469000E160C0B2012803D1E06840F48010E0601E
:1046A000204600F007F8DBE741F48031D7E700004F
:1046B000BFFFBDFF08B500214FF070620091009B65
:1046C0005B1C009393420CD80369002BF7DA00912E
:1046D000016941F0010101610099491C0091914279
:1046E00001D9032008BD0169C907F5D1002008BD23
:1046F00030B54C780A78012300EB4212012C2CD003
:10470000D2F8004B002C0BDAD2F8004B44F00064D6
:10471000C2F8004BD2F8004B44F08044C2F8004B82
:10472000D0F83C580C7804F00F0403FA04F425EA9E
:104730000444C0F83C48D0F81C48097801F00F0147
:104740008B4024EA0341C0F81C18D2F8000B194929
:104750000840C2F8000B002030BDD2F80049002C00
:104760000BDAD2F8004944F00064C2F80049D2F8EC
:10477000004944F08044C2F80049D0F83C480D7824
:1047800005F00F0503FA05F5ADB2AC43C0F83C489F
:10479000D0F81C48097801F00F018B4099B28C4386
:1047A000C0F81C48D2F8000903490840C2F80009C3
:1047B000D1E700000078F3EF007833ECD0F8001E6A
:1047C00021F00301C0F8001ED0F8041821F0020106
:1047D000C0F8041800207047D0F8001E21F0030133
:1047E000C0F8001ED0F8041841F00201C0F8041807
:1047F000002070472DE9F04F00250E46044617466D
:104800002846294604EB8002C2F80411401C0F28F8
:10481000F8D3C3F307405FEA0009204616D0806B47
:1048200020F40012A263A06B40F40022A2630846A9
:1048300088462146C4F8000EC7F30720012817D088
:104840000846D1F8001841F0030118E0D0F8040838
:1048500040F00202C4F80428A06B40F40012A263E6
:10486000A06B20F40022A263A06B20F48022DDE77D
:10487000300E0846D1F8001801D041F00101C0F80F
:104880000018102100F08BFA00B10125204600F03D
:104890006AFA00B101254046C4F81088C4F81488AB
:1048A000C4F81C8800214FF0006B4FF0904E4FF67B
:1048B0007F3AF2B215E000BF04EB4113D3F800C910
:1048C000BCF1000F06DA11B1C3F800E904E0C4F846
:1048D00000B901E0C3F80009C3F81009C3F808A93A
:1048E000491C8A42E8D8002115E000BF04EB4113BF
:1048F000D3F800CBBCF1000F06DA11B1C3F800EB1E
:1049000004E0C4F800BB01E0C3F8000BC3F8100BCF
:10491000C3F808AB491C8A42E8D8D4F8101821F42F
:104920008072C4F81028A0616FF080406061C6F307
:10493000074018B9A06940F01000A061A0690A49B9
:104940000843A061C7F3074018B1A06940F0080010
:10495000A061B9F1010F03D1A06904490843A06126
:104960002846BDE8F08F000000383C80040000407D
:10497000816821F0010181600020704710B5036C4F
:10498000134CA34203D9D0F8003B002B1EDB0023BD
:10499000C0F8103BD0F8103B43F40023C0F8103BA4
:1049A000D0F8103B43F01803C0F8103BD0F8103B90
:1049B00043F0C043C0F8103B012907D1C0F8142BC5
:1049C000D0F8001B41F08021C0F8001B002010BD72
:1049D0000A30544F4A780B78012A00EB43100BD071
:1049E000D0F8002B22F40012C0F8002B097903291B
:1049F00014D0022912D017E0D0F8002922F40012B6
:104A0000C0F800290979032901D002290CD1D0F876
:104A1000001941F08051C0F8001905E0D0F8001BE2
:104A200041F08051C0F8001B002070470A784B7895
:104A3000D1B200EB4110012B12D0D0F8001B00299D
:104A400006DB2AB1D0F8001B21F08041C0F8001B22
:104A5000D0F8001B41F40011C0F8001B0020704783
:104A6000D0F80019002906DB2AB1D0F8001921F08E
:104A70008041C0F80019D0F8001941F40011C0F8C5
:104A80000019EBE7F8B50C784F788B4DE3B26FF077
:104A9000604600EB4313012F29D0D3F8107B6FF34E
:104AA0001207C3F8107BD3F8107B2F40C3F8107B9C
:104AB000002C7DD00D69002D7BD08C6825446D1EA7
:104AC000B5FBF4F5ADB26C430C62D3F8104B06EABB
:104AD000C5452C43C3F8104BD3F8104B0D6AC5F3F2
:104AE00012052C43C3F8104B012A70D0CBE00F699C
:104AF000EFB1D3F810796FF31207C3F81079D3F838
:104B000010792F40C3F810790CB30F698D682F44CA
:104B10007F1EB7FBF5F5D3F81079ADB206EAC546AE
:104B20003743C3F810790E79012E1CD02AE0D3F850
:104B300010692E40C3F81069D3F8105945F40025C8
:104B4000C3F81059D3F810596FF3120520E00E691D
:104B50008D68AE4200D90D61D0F8105945F4002699
:104B6000C0F810690EE0D3F8106926F0C046C3F80B
:104B70001069D3F810694FF0C04707EA45752E4316
:104B8000C3F81069D3F810590E69C6F312063543FD
:104B9000C3F81059012A1BD000EB4413D3F8004985
:104BA00044F00444C3F800490C79012C31D001E0F1
:104BB00044E057E00A695AB3D0F83428097801F084
:104BC0000F03012199400A43C0F8342871E056E0F0
:104BD000CA691AB100EB4413C3F8142909790129F1
:104BE0000ED1D0F80818C90500EB4411D1F80029FE
:104BF00002D442F0005201E042F08052C1F8002994
:104C000000EB4410D0F8001941F00441C0F800193D
:104C10004FE0D0F80848E405D3F8004902D444F046
:104C2000005401E044F08054C3F8004900920A8A1D
:104C300093B20A78C96800F0DFF93AE00C690CB168
:104C40008C680C618C680C62D0F8105BC4F31204A1
:104C50002543C0F8105BD0F8104B44F40024C0F892
:104C6000104B41E7D3F8104B8D68C5F312052C4368
:104C7000C3F8104BD3F8104B44F4002432E7CA6851
:104C80000AB1C3F8142B097901290CD1D0F808080E
:104C9000C005D3F8000B02D440F0005001E040F012
:104CA0008050C3F8000BD3F8000B40F00440C3F869
:104CB000000B0020F8BD0000FFFF07E038B5002220
:104CC000009213464D780A7842F2107400EB4212BB
:104CD000012D19D0D2F8005B002D3CDAD2F8005B30
:104CE00045F00065C2F8005B0A7800EB4212D2F88A
:104CF000005B45F08045C2F8005B009A521C0092B0
:104D0000A24221D9012326E0D2F80059002D22DA4F
:104D1000D2F8005945F00065C2F800590A7800EB56
:104D20004212D2F8005945F08045C2F80059009A65
:104D3000521C0092A242E5D80A7800EB4212D2F847
:104D40000029002AF3DB06E00A7800EB4212D2F8D1
:104D5000002B002AD1DB184638BD816841F00101E3
:104D600081600020704708B500214FF0706200910B
:104D7000009B5B1C009393420AD80369002BF7DA6F
:104D80000091102101610099491C0091914201D9C3
:104D9000032008BD0169C906F5D4002008BD18B577
:104DA00000224FF070630092009C641C00949C42AF
:104DB0000CD80469002CF7DA0092202242EA811113
:104DC00001610099491C0091994201D9032018BD45
:104DD00001698906F5D4002018BDD0F8080810F044
:104DE000060004D0022803D0062801D00F20704707
:104DF00002207047406900F001007047D0F8181891
:104E0000D0F81C08084080B27047D0F81818D0F8C5
:104E10001C080840000C704710B5D0F81038D0F8C6
:104E2000342801F00F0400EB4110E24002F00102CF
:104E3000D0F8080943EAC212104010BD00EB41113E
:104E4000D1F8081BD0F81408084070474169806900
:104E50000840704730B503460846940802F0030145
:104E6000002203F5805303E01D6840F8045B521CE8
:104E7000A242F9D300290BD01C680022D50024FAE5
:104E800005F3491E521C090400F8013B090CF5D139
:104E900030BD70B50446C068002520F0C040E06019
:104EA000012901D079B120E0E06840F00050E060D5
:104EB0000A20FDF74FF860690A3510F0010F10D194
:104EC000C82DF5D30DE0E06840F08040E0600A2096
:104ED000FDF740F860690A3510F0010F01D0C82DC8
:104EE000F5D3C82D01D0002070BD012070BDD0F8D1
:104EF000002822F4FE62C0F80028D0F800284FF401
:104F0000FE6303EA01110A43C0F80028002070473D
:104F1000022A3ED1264A274B0A449A4201D20F2147
:104F200038E0254A254B0A449A4201D20E2131E04D
:104F3000234A244B0A449A4201D20D212AE0224AF4
:104F4000224B0A449A4201D20C2123E0204A214BF1
:104F50000A449A4201D20B211CE01F4A1F4B0A440B
:104F60009A4201D20A2115E01D4A1E4B0A449A4278
:104F70000FD31D4A1D4B0A449A4201D2082109E071
:104F80001B4A11441B4A914201D2072102E006212B
:104F900000E00921C26822F47052C260C2684FF476
:104FA000705303EA81210A43C26000207047000069
:104FB000405327FF00350C00401E1BFF40420F00EE
:104FC00000DC0BFF804F1200808CF9FE20D613000E
:104FD00060B6E5FE60E3160000D3CEFE40771B000E
:104FE000C05BB3FEC091210000CA91FE207538005D
:104FF000E05459FEE09C410010B5029C74B9DB1CE2
:105000009C0800EB0230002300F5805004E000BF54
:1050100051F8042B02605B1CA342F9D3002010BDA1
:10502000FEE703B401984100009850EAC12018BF80
:1050300004204A0D18BF40F0010040F2FF72B2EBAD
:10504000515F08BF40F00200012808BF052002B0F0
:1050500070470907090E002804DB00F1E02080F802
:105060000014704700F00F0000F1E02080F8141DDC
:10507000704730380A2801D201207047002070475D
:1050800030B5034600200246044C04E09D5C4540D8
:10509000521C605D92B28A42F8D330BD445200087F
:1050A000FDF770F8FEF7DEF9FEF7D4F8FEF7E8F842
:1050B000FEE700000FB40C4870B50A4C05AB4FF486
:1050C000807523602946049AFBF79CF981B2A942B6
:1050D00000D92946002020600348FCF70DFF70BC72
:1050E0005DF814FB680000205416002010B500295C
:1050F0000AD00878002807D005487844FCF762FAFF
:10510000002801D0002010BD0248784410BD0000E6
:10511000760500006E05000010B500290AD0087859
:10512000002807D005487844FCF74CFA002801D045
:10513000002010BD0248784410BD00006605000044
:105140005E0500000808A0F500114FEA3101704724
:1051500043004FEAD30C4FEA3C0C43401FBF4007CB
:105160000CF1605113F0FE4F70471CF0006F03D13B
:1051700000200CF0004170470CF0004343EA5070EF
:1051800010B540EACC0000F00EF800BF000000921D
:105190004FEA0001FFF7D6BF4FF000414FF000008B
:1051A000A1F5002170470EF1020E2EF0030E5EF8FD
:1051B000044B244204D44FEA4102B2F17F4F11D88C
:1051C0004FEA4003B3F17F4F0CD80ED14FEAD07CA9
:1051D000B2F17F4F0CEB4C0C0CF1020C08BF4CEB06
:1051E000D17C04E04FF0080C01E04FEAD17C0CEBDD
:1051F0004C0324FA03F404F00704B4F1040C06D2BF
:105200000EEB840CBDE810404CF0010C6047DFE869
:105210000CF0070802024FF00040A0F5800010BD1E
:105220000846420018BFD2F1807288BF00F00040EB
:1052300010BD4FF04070E1EE100A7047FBF7CFBD94
:10524000FBF704BF005EBCE2613FDD83C29C7E20B1
:10525000A3FD1F419DC3217FFCA2401E5F01E3BD52
:105260003E6082DC237D9FC1421CFEA0E1BF5D0346
:1052700080DE3C62BEE0025CDF81633D7C22C09E3A
:105280001D43A1FF4618FAA427799BC584DA386626
:10529000E5BB5907DB856739BAE406581947A5FB12
:1052A0007826C49A653BD987045AB8E6A7F91B4506
:1052B000C6987A24F8A6441A99C7257B3A6486D8FA
:1052C0005B05E7B98CD2306EEDB3510F4E10F2ACE6
:1052D0002F7193CD114FADF3702ECC92D38D6F31D2
:1052E000B2EC0E50AFF1134DCE90722C6D33D18FC6
:1052F0000C52B0EE326C8ED0530DEFB1F0AE4C12BA
:1053000091CF2D73CA947628ABF517490856B4EAA5
:105310006937D58B5709EBB536688AD495CB297791
:10532000F4AA4816E9B7550B88D6346A2B7597C985
:105330004A14F6A8742AC896154BA9F7B6E80A5479
:10534000D7896B350000891112239B322446AD5753
:105350003665BF74488CC19D5AAFD3BE6CCAE5DBBD
:105360007EE9F7F88110080193331A22A5562C47DD
:10537000B7753E64C99C408DDBBF52AEEDDA64CB9D
:10538000FFF976E802218B30100299132667AF7679
:105390003444BD554AADC3BC588ED19F6EEBE7FA7D
:1053A0007CC8F5D983310A2091121803A7772E669D
:1053B000B5543C45CBBD42ACD99E508FEFFB66EA5D
:1053C000FDD874C904428D5316619F702004A9153D
:1053D0003227BB364CCEC5DF5EEDD7FC6888E1993D
:1053E0007AABF3BA85520C4397711E60A11428055D
:1053F000B3373A26CDDE44CFDFFD56ECE99860891D
:10540000FBBB72AA06638F7214409D512225AB34F8
:105410003006B9174EEFC7FE5CCCD5DD6AA9E3B8FC
:10542000788AF19B87730E6295501C41A3352A241C
:10543000B1163807CFFF46EEDDDC54CDEBB962A8DC
:10544000F99A708B088481951AA793B62CC2A5D3BC
:105450003EE1B7F04008C919522BDB3A644EED5FCC
:10546000766DFF7C899400859BB712A6ADD224C3CC
:10547000BFF136E0C1184809D33B5A2AE55E6C4FAC
:10548000F77D7E6C0AA583B4188691972EE3A7F268
:105490003CC0B5D14229CB38500AD91B666FEF7E8C
:1054A000744CFD5D8BB502A499961087AFF326E28C
:1054B000BDD034C1C3394A28D11A580BE77F6E6E6C
:1054C000F55C7C4D0CC685D71EE597F42880A1912C
:1054D0003AA3B3B2444ACD5B5669DF78600CE91D4C
:1054E000722FFB3E8DD604C79FF516E4A99020814C
:1054F000BBB332A2C55A4C4BD7795E68E11C680D2C
:10550000F33F7A2E0EE787F61CC495D52AA1A3B0E7
:105510003882B193466BCF7A5448DD59622DEB3C0B
:10552000700EF91F8FF706E69DD414C5ABB122A00B
:10553000B9923083C77B4E6AD5585C49E33D6A2CEB
:10554000F11E780F000000000000000001020304BB
:105550000607080900000000000000003031323367
:105560003435363738394142434445464030580097
:1055700030313233343536373839616263646566C9
:105580004030780004000008000000000000000225
:10559000000100001030313233343536373839618C
:1055A0006263646566787000303132333435363783
:1055B00038394142434445465850000002400000FB
:1055C000000000A00000000005400000000000C82E
:1055D000000000000C4000000000409C00000000A3
:1055E000194000000020BCBE000000003440000054
:1055F000BFC91B8E00000004B5400000504BCFD047
:105600006607E2CF010000006C4100003E8251AA13
:10561000DFEEA73401000000D9420000DCB5A0E2B3
:105620003A301F97FFFFFFFFB4450000FD25A0C8DB
:10563000E9A3C14FFFFFFFFFFF3F00000000008014
:1056400000000000FF3F000000000080000000009C
:105650009C570008000000200C010000C401000855
:10566000A85800080C010020AC310000E00100083F
:105670001C00000043000000F8FFFFFF0C000000CA
:105680000E0000000F0000002E00000010010000BE
:1056900043000000F8FFFFFF004040404040404012
:1056A00040404141414141404040404040404040F5
:1056B0004040404040404040400502020202020299
:1056C00002020202020202020220202020202020E8
:1056D00020202002020202020202909090909090FC
:1056E00010101010101010101010101010101010BA
:1056F000101010100202020202028888888888882E
:105700000808080808080808080808080808080819
:105710000808080802020202400000000000000021
:105720000000000000000000000000000000000079
:105730000000000000000000000000000000000069
:105740000000000000000000000000000000000059
:105750000000000000000000000000000000000049
:105760000000000000000000000000000000000039
:105770000000000000000000000000000000000029
:105780000000000000000000000000000000000019
:10579000000000000000000000000000E53A0008E2
:1057A000153B0008213B0008493B0008753B0008F9
:1057B000C53A0008F13A0008040309041201000286
:1057C000020200408304405700020102030100006E
:1057D0001A030000000000000000000000000000AC
:1057E0000000000000000000000000002C0000008D
:1057F0000D1E0008091E0008E51D0008311E0008E6
:10580000F51E00080000000001000000100000006C
:10581000000000000024F40000000000810182006C
:105820000A060002000000400100000009024300D7
:10583000020100C032090400000102020100052437
:1058400000100105240100010424020205240600C1
:10585000010705820308001009040100020A000084
:10586000000705010240000007058102400000001A
:1058700049370008BD350008E7380008000000007F
:105880004D360008093500087F350008000000008B
:105890000000000000000000CD360008913600082E
:0858A0000D37000885360008F1
:040000050800018965
:00000001FF
